{
  "_format": "hh-sol-artifact-1",
  "contractName": "LandSale",
  "sourceName": "contracts/LandSale.sol",
  "address": "0x29773762eB10B5CD261555311A811206B376fAF6",
  "abi": [
    {
      "inputs": [
        {
          "internalType": "address",
          "name": "sender",
          "type": "address"
        },
        {
          "internalType": "uint256",
          "name": "tokenId",
          "type": "uint256"
        },
        {
          "internalType": "address",
          "name": "owner",
          "type": "address"
        }
      ],
      "name": "ERC721IncorrectOwner",
      "type": "error"
    },
    {
      "inputs": [
        {
          "internalType": "address",
          "name": "operator",
          "type": "address"
        },
        {
          "internalType": "uint256",
          "name": "tokenId",
          "type": "uint256"
        }
      ],
      "name": "ERC721InsufficientApproval",
      "type": "error"
    },
    {
      "inputs": [
        {
          "internalType": "address",
          "name": "approver",
          "type": "address"
        }
      ],
      "name": "ERC721InvalidApprover",
      "type": "error"
    },
    {
      "inputs": [
        {
          "internalType": "address",
          "name": "operator",
          "type": "address"
        }
      ],
      "name": "ERC721InvalidOperator",
      "type": "error"
    },
    {
      "inputs": [
        {
          "internalType": "address",
          "name": "owner",
          "type": "address"
        }
      ],
      "name": "ERC721InvalidOwner",
      "type": "error"
    },
    {
      "inputs": [
        {
          "internalType": "address",
          "name": "receiver",
          "type": "address"
        }
      ],
      "name": "ERC721InvalidReceiver",
      "type": "error"
    },
    {
      "inputs": [
        {
          "internalType": "address",
          "name": "sender",
          "type": "address"
        }
      ],
      "name": "ERC721InvalidSender",
      "type": "error"
    },
    {
      "inputs": [
        {
          "internalType": "uint256",
          "name": "tokenId",
          "type": "uint256"
        }
      ],
      "name": "ERC721NonexistentToken",
      "type": "error"
    },
    {
      "anonymous": false,
      "inputs": [
        {
          "indexed": true,
          "internalType": "address",
          "name": "owner",
          "type": "address"
        },
        {
          "indexed": true,
          "internalType": "address",
          "name": "approved",
          "type": "address"
        },
        {
          "indexed": true,
          "internalType": "uint256",
          "name": "tokenId",
          "type": "uint256"
        }
      ],
      "name": "Approval",
      "type": "event"
    },
    {
      "anonymous": false,
      "inputs": [
        {
          "indexed": true,
          "internalType": "address",
          "name": "owner",
          "type": "address"
        },
        {
          "indexed": true,
          "internalType": "address",
          "name": "operator",
          "type": "address"
        },
        {
          "indexed": false,
          "internalType": "bool",
          "name": "approved",
          "type": "bool"
        }
      ],
      "name": "ApprovalForAll",
      "type": "event"
    },
    {
      "anonymous": false,
      "inputs": [
        {
          "indexed": true,
          "internalType": "uint256",
          "name": "LandID",
          "type": "uint256"
        },
        {
          "indexed": false,
          "internalType": "address",
          "name": "highestBidder",
          "type": "address"
        },
        {
          "indexed": false,
          "internalType": "uint256",
          "name": "highestBid",
          "type": "uint256"
        }
      ],
      "name": "BidEvent",
      "type": "event"
    },
    {
      "anonymous": false,
      "inputs": [
        {
          "indexed": true,
          "internalType": "address",
          "name": "from",
          "type": "address"
        },
        {
          "indexed": true,
          "internalType": "address",
          "name": "to",
          "type": "address"
        },
        {
          "indexed": true,
          "internalType": "uint256",
          "name": "tokenId",
          "type": "uint256"
        }
      ],
      "name": "Transfer",
      "type": "event"
    },
    {
      "stateMutability": "nonpayable",
      "type": "fallback"
    },
    {
      "inputs": [
        {
          "internalType": "uint256",
          "name": "LandID",
          "type": "uint256"
        }
      ],
      "name": "Bid",
      "outputs": [],
      "stateMutability": "payable",
      "type": "function"
    },
    {
      "inputs": [
        {
          "internalType": "uint256",
          "name": "LandID",
          "type": "uint256"
        }
      ],
      "name": "acceptBid",
      "outputs": [],
      "stateMutability": "payable",
      "type": "function"
    },
    {
      "inputs": [
        {
          "internalType": "address",
          "name": "to",
          "type": "address"
        },
        {
          "internalType": "uint256",
          "name": "tokenId",
          "type": "uint256"
        }
      ],
      "name": "approve",
      "outputs": [],
      "stateMutability": "nonpayable",
      "type": "function"
    },
    {
      "inputs": [
        {
          "internalType": "address",
          "name": "owner",
          "type": "address"
        }
      ],
      "name": "balanceOf",
      "outputs": [
        {
          "internalType": "uint256",
          "name": "",
          "type": "uint256"
        }
      ],
      "stateMutability": "view",
      "type": "function"
    },
    {
      "inputs": [
        {
          "internalType": "uint256",
          "name": "tokenId",
          "type": "uint256"
        }
      ],
      "name": "getApproved",
      "outputs": [
        {
          "internalType": "address",
          "name": "",
          "type": "address"
        }
      ],
      "stateMutability": "view",
      "type": "function"
    },
    {
      "inputs": [
        {
          "internalType": "uint256",
          "name": "landID",
          "type": "uint256"
        }
      ],
      "name": "getLandDetails",
      "outputs": [
        {
          "components": [
            {
              "internalType": "uint256",
              "name": "surveyNo",
              "type": "uint256"
            },
            {
              "internalType": "string",
              "name": "district",
              "type": "string"
            },
            {
              "internalType": "string",
              "name": "taluk",
              "type": "string"
            },
            {
              "internalType": "string",
              "name": "village",
              "type": "string"
            },
            {
              "internalType": "uint256",
              "name": "blockNo",
              "type": "uint256"
            },
            {
              "internalType": "uint256",
              "name": "landValue",
              "type": "uint256"
            },
            {
              "internalType": "uint256",
              "name": "area",
              "type": "uint256"
            },
            {
              "internalType": "bool",
              "name": "saleStatus",
              "type": "bool"
            }
          ],
          "internalType": "struct LandRegistration.LandDetail",
          "name": "",
          "type": "tuple"
        }
      ],
      "stateMutability": "view",
      "type": "function"
    },
    {
      "inputs": [],
      "name": "getRegisteredLandCount",
      "outputs": [
        {
          "internalType": "uint256",
          "name": "",
          "type": "uint256"
        }
      ],
      "stateMutability": "view",
      "type": "function"
    },
    {
      "inputs": [
        {
          "internalType": "address",
          "name": "owner",
          "type": "address"
        },
        {
          "internalType": "address",
          "name": "operator",
          "type": "address"
        }
      ],
      "name": "isApprovedForAll",
      "outputs": [
        {
          "internalType": "bool",
          "name": "",
          "type": "bool"
        }
      ],
      "stateMutability": "view",
      "type": "function"
    },
    {
      "inputs": [],
      "name": "name",
      "outputs": [
        {
          "internalType": "string",
          "name": "",
          "type": "string"
        }
      ],
      "stateMutability": "view",
      "type": "function"
    },
    {
      "inputs": [
        {
          "internalType": "uint256",
          "name": "tokenId",
          "type": "uint256"
        }
      ],
      "name": "ownerOf",
      "outputs": [
        {
          "internalType": "address",
          "name": "",
          "type": "address"
        }
      ],
      "stateMutability": "view",
      "type": "function"
    },
    {
      "inputs": [
        {
          "internalType": "uint256",
          "name": "surveyNo",
          "type": "uint256"
        },
        {
          "internalType": "string",
          "name": "district",
          "type": "string"
        },
        {
          "internalType": "string",
          "name": "taluk",
          "type": "string"
        },
        {
          "internalType": "string",
          "name": "village",
          "type": "string"
        },
        {
          "internalType": "uint256",
          "name": "blockNo",
          "type": "uint256"
        },
        {
          "internalType": "uint256",
          "name": "landValue",
          "type": "uint256"
        },
        {
          "internalType": "uint256",
          "name": "area",
          "type": "uint256"
        }
      ],
      "name": "registerNewLand",
      "outputs": [],
      "stateMutability": "nonpayable",
      "type": "function"
    },
    {
      "inputs": [],
      "name": "registeredLandCount",
      "outputs": [
        {
          "internalType": "uint256",
          "name": "",
          "type": "uint256"
        }
      ],
      "stateMutability": "view",
      "type": "function"
    },
    {
      "inputs": [
        {
          "internalType": "address",
          "name": "from",
          "type": "address"
        },
        {
          "internalType": "address",
          "name": "to",
          "type": "address"
        },
        {
          "internalType": "uint256",
          "name": "tokenId",
          "type": "uint256"
        }
      ],
      "name": "safeTransferFrom",
      "outputs": [],
      "stateMutability": "nonpayable",
      "type": "function"
    },
    {
      "inputs": [
        {
          "internalType": "address",
          "name": "from",
          "type": "address"
        },
        {
          "internalType": "address",
          "name": "to",
          "type": "address"
        },
        {
          "internalType": "uint256",
          "name": "tokenId",
          "type": "uint256"
        },
        {
          "internalType": "bytes",
          "name": "data",
          "type": "bytes"
        }
      ],
      "name": "safeTransferFrom",
      "outputs": [],
      "stateMutability": "nonpayable",
      "type": "function"
    },
    {
      "inputs": [
        {
          "internalType": "address",
          "name": "operator",
          "type": "address"
        },
        {
          "internalType": "bool",
          "name": "approved",
          "type": "bool"
        }
      ],
      "name": "setApprovalForAll",
      "outputs": [],
      "stateMutability": "nonpayable",
      "type": "function"
    },
    {
      "inputs": [
        {
          "internalType": "bytes4",
          "name": "interfaceId",
          "type": "bytes4"
        }
      ],
      "name": "supportsInterface",
      "outputs": [
        {
          "internalType": "bool",
          "name": "",
          "type": "bool"
        }
      ],
      "stateMutability": "view",
      "type": "function"
    },
    {
      "inputs": [],
      "name": "symbol",
      "outputs": [
        {
          "internalType": "string",
          "name": "",
          "type": "string"
        }
      ],
      "stateMutability": "view",
      "type": "function"
    },
    {
      "inputs": [
        {
          "internalType": "uint256",
          "name": "tokenId",
          "type": "uint256"
        }
      ],
      "name": "tokenURI",
      "outputs": [
        {
          "internalType": "string",
          "name": "",
          "type": "string"
        }
      ],
      "stateMutability": "view",
      "type": "function"
    },
    {
      "inputs": [
        {
          "internalType": "address",
          "name": "from",
          "type": "address"
        },
        {
          "internalType": "address",
          "name": "to",
          "type": "address"
        },
        {
          "internalType": "uint256",
          "name": "tokenId",
          "type": "uint256"
        }
      ],
      "name": "transferFrom",
      "outputs": [],
      "stateMutability": "nonpayable",
      "type": "function"
    }
  ],
  "bytecode": "0x608060405260016007553480156200001657600080fd5b506040518060400160405280600481526020017f4c616e64000000000000000000000000000000000000000000000000000000008152506040518060400160405280600381526020017f4c4e440000000000000000000000000000000000000000000000000000000000815250816000908162000094919062000329565b508060019081620000a6919062000329565b50505062000410565b600081519050919050565b7f4e487b7100000000000000000000000000000000000000000000000000000000600052604160045260246000fd5b7f4e487b7100000000000000000000000000000000000000000000000000000000600052602260045260246000fd5b600060028204905060018216806200013157607f821691505b602082108103620001475762000146620000e9565b5b50919050565b60008190508160005260206000209050919050565b60006020601f8301049050919050565b600082821b905092915050565b600060088302620001b17fffffffffffffffffffffffffffffffffffffffffffffffffffffffffffffffff8262000172565b620001bd868362000172565b95508019841693508086168417925050509392505050565b6000819050919050565b6000819050919050565b60006200020a62000204620001fe84620001d5565b620001df565b620001d5565b9050919050565b6000819050919050565b6200022683620001e9565b6200023e620002358262000211565b8484546200017f565b825550505050565b600090565b6200025562000246565b620002628184846200021b565b505050565b5b818110156200028a576200027e6000826200024b565b60018101905062000268565b5050565b601f821115620002d957620002a3816200014d565b620002ae8462000162565b81016020851015620002be578190505b620002d6620002cd8562000162565b83018262000267565b50505b505050565b600082821c905092915050565b6000620002fe60001984600802620002de565b1980831691505092915050565b6000620003198383620002eb565b9150826002028217905092915050565b6200033482620000af565b67ffffffffffffffff81111562000350576200034f620000ba565b5b6200035c825462000118565b620003698282856200028e565b600060209050601f831160018114620003a157600084156200038c578287015190505b6200039885826200030b565b86555062000408565b601f198416620003b1866200014d565b60005b82811015620003db57848901518255600182019150602085019450602081019050620003b4565b86831015620003fb5784890151620003f7601f891682620002eb565b8355505b6001600288020188555050505b505050505050565b6130cf80620004206000396000f3fe6080604052600436106101185760003560e01c806370a08231116100a0578063b88d4fde11610064578063b88d4fde146103a6578063c87b56dd146103cf578063e985e9c51461040c578063f077066514610449578063fe0cb7dc1461047257610119565b806370a08231146102ce5780637a183e841461030b57806395d89b4114610327578063a22cb46514610352578063a7613a7d1461037b57610119565b806323b872dd116100e757806323b872dd146101f85780632b1fd58a1461022157806342842e0e1461023d578063529881e1146102665780636352211e1461029157610119565b806301ffc9a71461012a57806306fdde0314610167578063081812fc14610192578063095ea7b3146101cf57610119565b5b34801561012557600080fd5b600080fd5b34801561013657600080fd5b50610151600480360381019061014c91906121e0565b6104af565b60405161015e9190612228565b60405180910390f35b34801561017357600080fd5b5061017c610591565b60405161018991906122d3565b60405180910390f35b34801561019e57600080fd5b506101b960048036038101906101b4919061232b565b610623565b6040516101c69190612399565b60405180910390f35b3480156101db57600080fd5b506101f660048036038101906101f191906123e0565b61063f565b005b34801561020457600080fd5b5061021f600480360381019061021a9190612420565b610655565b005b61023b6004803603810190610236919061232b565b610757565b005b34801561024957600080fd5b50610264600480360381019061025f9190612420565b610a54565b005b34801561027257600080fd5b5061027b610a74565b6040516102889190612482565b60405180910390f35b34801561029d57600080fd5b506102b860048036038101906102b3919061232b565b610a7e565b6040516102c59190612399565b60405180910390f35b3480156102da57600080fd5b506102f560048036038101906102f0919061249d565b610a90565b6040516103029190612482565b60405180910390f35b6103256004803603810190610320919061232b565b610b4a565b005b34801561033357600080fd5b5061033c610eef565b60405161034991906122d3565b60405180910390f35b34801561035e57600080fd5b50610379600480360381019061037491906124f6565b610f81565b005b34801561038757600080fd5b50610390610f97565b60405161039d9190612482565b60405180910390f35b3480156103b257600080fd5b506103cd60048036038101906103c8919061266b565b610f9d565b005b3480156103db57600080fd5b506103f660048036038101906103f1919061232b565b610fba565b60405161040391906122d3565b60405180910390f35b34801561041857600080fd5b50610433600480360381019061042e91906126ee565b611023565b6040516104409190612228565b60405180910390f35b34801561045557600080fd5b50610470600480360381019061046b91906127cf565b6110b7565b005b34801561047e57600080fd5b506104996004803603810190610494919061232b565b6111c5565b6040516104a691906129eb565b60405180910390f35b60007f80ac58cd000000000000000000000000000000000000000000000000000000007bffffffffffffffffffffffffffffffffffffffffffffffffffffffff1916827bffffffffffffffffffffffffffffffffffffffffffffffffffffffff1916148061057a57507f5b5e139f000000000000000000000000000000000000000000000000000000007bffffffffffffffffffffffffffffffffffffffffffffffffffffffff1916827bffffffffffffffffffffffffffffffffffffffffffffffffffffffff1916145b8061058a5750610589826113ec565b5b9050919050565b6060600080546105a090612a3c565b80601f01602080910402602001604051908101604052809291908181526020018280546105cc90612a3c565b80156106195780601f106105ee57610100808354040283529160200191610619565b820191906000526020600020905b8154815290600101906020018083116105fc57829003601f168201915b5050505050905090565b600061062e82611456565b50610638826114de565b9050919050565b610651828261064c61151b565b611523565b5050565b600073ffffffffffffffffffffffffffffffffffffffff168273ffffffffffffffffffffffffffffffffffffffff16036106c75760006040517f64a0ae920000000000000000000000000000000000000000000000000000000081526004016106be9190612399565b60405180910390fd5b60006106db83836106d661151b565b611535565b90508373ffffffffffffffffffffffffffffffffffffffff168173ffffffffffffffffffffffffffffffffffffffff1614610751578382826040517f64283d7b00000000000000000000000000000000000000000000000000000000815260040161074893929190612a6d565b60405180910390fd5b50505050565b3373ffffffffffffffffffffffffffffffffffffffff166108fc60086000848152602001908152602001600020600001549081150290604051600060405180830381858888f193505050501580156107b3573d6000803e3d6000fd5b506107f5336008600084815260200190815260200160002060010160009054906101000a900473ffffffffffffffffffffffffffffffffffffffff1683610a54565b60005b6008600083815260200190815260200160002060020180549050811015610a21576008600083815260200190815260200160002060010160009054906101000a900473ffffffffffffffffffffffffffffffffffffffff1673ffffffffffffffffffffffffffffffffffffffff1660086000848152602001908152602001600020600201828154811061088e5761088d612aa4565b5b9060005260206000200160009054906101000a900473ffffffffffffffffffffffffffffffffffffffff1673ffffffffffffffffffffffffffffffffffffffff160315610a14576008600083815260200190815260200160002060020181815481106108fd576108fc612aa4565b5b9060005260206000200160009054906101000a900473ffffffffffffffffffffffffffffffffffffffff1673ffffffffffffffffffffffffffffffffffffffff166108fc60086000858152602001908152602001600020600301600060086000878152602001908152602001600020600201858154811061098157610980612aa4565b5b9060005260206000200160009054906101000a900473ffffffffffffffffffffffffffffffffffffffff1673ffffffffffffffffffffffffffffffffffffffff1673ffffffffffffffffffffffffffffffffffffffff168152602001908152602001600020549081150290604051600060405180830381858888f19350505050158015610a12573d6000803e3d6000fd5b505b80806001019150506107f8565b5060016006600083815260200190815260200160002060070160006101000a81548160ff02191690831515021790555050565b610a6f83838360405180602001604052806000815250610f9d565b505050565b6000600754905090565b6000610a8982611456565b9050919050565b60008073ffffffffffffffffffffffffffffffffffffffff168273ffffffffffffffffffffffffffffffffffffffff1603610b035760006040517f89c62b64000000000000000000000000000000000000000000000000000000008152600401610afa9190612399565b60405180910390fd5b600360008373ffffffffffffffffffffffffffffffffffffffff1673ffffffffffffffffffffffffffffffffffffffff168152602001908152602001600020549050919050565b610b5381610a7e565b73ffffffffffffffffffffffffffffffffffffffff163373ffffffffffffffffffffffffffffffffffffffff1603610bc0576040517f08c379a0000000000000000000000000000000000000000000000000000000008152600401610bb790612b45565b60405180910390fd5b6008600082815260200190815260200160002060000154346008600084815260200190815260200160002060030160003373ffffffffffffffffffffffffffffffffffffffff1673ffffffffffffffffffffffffffffffffffffffff16815260200190815260200160002054610c369190612b94565b11610c76576040517f08c379a0000000000000000000000000000000000000000000000000000000008152600401610c6d90612c60565b60405180910390fd5b336008600083815260200190815260200160002060010160006101000a81548173ffffffffffffffffffffffffffffffffffffffff021916908373ffffffffffffffffffffffffffffffffffffffff160217905550346008600083815260200190815260200160002060030160003373ffffffffffffffffffffffffffffffffffffffff1673ffffffffffffffffffffffffffffffffffffffff16815260200190815260200160002054610d2a9190612b94565b6008600083815260200190815260200160002060030160003373ffffffffffffffffffffffffffffffffffffffff1673ffffffffffffffffffffffffffffffffffffffff168152602001908152602001600020819055506008600082815260200190815260200160002060030160003373ffffffffffffffffffffffffffffffffffffffff1673ffffffffffffffffffffffffffffffffffffffff16815260200190815260200160002054600860008381526020019081526020016000206000018190555060086000828152602001908152602001600020600201339080600181540180825580915050600190039060005260206000200160009091909190916101000a81548173ffffffffffffffffffffffffffffffffffffffff021916908373ffffffffffffffffffffffffffffffffffffffff160217905550807faba11c5dfdb797eb6f7328f5f70a9b390c19e34a3927e10f1925839d442c42936008600084815260200190815260200160002060010160009054906101000a900473ffffffffffffffffffffffffffffffffffffffff166008600085815260200190815260200160002060000154604051610ee4929190612c80565b60405180910390a250565b606060018054610efe90612a3c565b80601f0160208091040260200160405190810160405280929190818152602001828054610f2a90612a3c565b8015610f775780601f10610f4c57610100808354040283529160200191610f77565b820191906000526020600020905b815481529060010190602001808311610f5a57829003601f168201915b5050505050905090565b610f93610f8c61151b565b838361174f565b5050565b60075481565b610fa8848484610655565b610fb4848484846118be565b50505050565b6060610fc582611456565b506000610fd0611a75565b90506000815111610ff0576040518060200160405280600081525061101b565b80610ffa84611a8c565b60405160200161100b929190612ce5565b6040516020818303038152906040525b915050919050565b6000600560008473ffffffffffffffffffffffffffffffffffffffff1673ffffffffffffffffffffffffffffffffffffffff16815260200190815260200160002060008373ffffffffffffffffffffffffffffffffffffffff1673ffffffffffffffffffffffffffffffffffffffff16815260200190815260200160002060009054906101000a900460ff16905092915050565b604051806101000160405280888152602001878152602001868152602001858152602001848152602001838152602001828152602001600015158152506006600060075481526020019081526020016000206000820151816000015560208201518160010190816111289190612eb5565b50604082015181600201908161113e9190612eb5565b5060608201518160030190816111549190612eb5565b506080820151816004015560a0820151816005015560c0820151816006015560e08201518160070160006101000a81548160ff0219169083151502179055509050506111a233600754611b5a565b6001600760008282546111b59190612b94565b9250508190555050505050505050565b6111cd61212d565b60066000838152602001908152602001600020604051806101000160405290816000820154815260200160018201805461120690612a3c565b80601f016020809104026020016040519081016040528092919081815260200182805461123290612a3c565b801561127f5780601f106112545761010080835404028352916020019161127f565b820191906000526020600020905b81548152906001019060200180831161126257829003601f168201915b5050505050815260200160028201805461129890612a3c565b80601f01602080910402602001604051908101604052809291908181526020018280546112c490612a3c565b80156113115780601f106112e657610100808354040283529160200191611311565b820191906000526020600020905b8154815290600101906020018083116112f457829003601f168201915b5050505050815260200160038201805461132a90612a3c565b80601f016020809104026020016040519081016040528092919081815260200182805461135690612a3c565b80156113a35780601f10611378576101008083540402835291602001916113a3565b820191906000526020600020905b81548152906001019060200180831161138657829003601f168201915b505050505081526020016004820154815260200160058201548152602001600682015481526020016007820160009054906101000a900460ff1615151515815250509050919050565b60007f01ffc9a7000000000000000000000000000000000000000000000000000000007bffffffffffffffffffffffffffffffffffffffffffffffffffffffff1916827bffffffffffffffffffffffffffffffffffffffffffffffffffffffff1916149050919050565b60008061146283611c53565b9050600073ffffffffffffffffffffffffffffffffffffffff168173ffffffffffffffffffffffffffffffffffffffff16036114d557826040517f7e2732890000000000000000000000000000000000000000000000000000000081526004016114cc9190612482565b60405180910390fd5b80915050919050565b60006004600083815260200190815260200160002060009054906101000a900473ffffffffffffffffffffffffffffffffffffffff169050919050565b600033905090565b6115308383836001611c90565b505050565b60008061154184611c53565b9050600073ffffffffffffffffffffffffffffffffffffffff168373ffffffffffffffffffffffffffffffffffffffff161461158357611582818486611e55565b5b600073ffffffffffffffffffffffffffffffffffffffff168173ffffffffffffffffffffffffffffffffffffffff1614611614576115c5600085600080611c90565b6001600360008373ffffffffffffffffffffffffffffffffffffffff1673ffffffffffffffffffffffffffffffffffffffff168152602001908152602001600020600082825403925050819055505b600073ffffffffffffffffffffffffffffffffffffffff168573ffffffffffffffffffffffffffffffffffffffff1614611697576001600360008773ffffffffffffffffffffffffffffffffffffffff1673ffffffffffffffffffffffffffffffffffffffff168152602001908152602001600020600082825401925050819055505b846002600086815260200190815260200160002060006101000a81548173ffffffffffffffffffffffffffffffffffffffff021916908373ffffffffffffffffffffffffffffffffffffffff160217905550838573ffffffffffffffffffffffffffffffffffffffff168273ffffffffffffffffffffffffffffffffffffffff167fddf252ad1be2c89b69c2b068fc378daa952ba7f163c4a11628f55a4df523b3ef60405160405180910390a4809150509392505050565b600073ffffffffffffffffffffffffffffffffffffffff168273ffffffffffffffffffffffffffffffffffffffff16036117c057816040517f5b08ba180000000000000000000000000000000000000000000000000000000081526004016117b79190612399565b60405180910390fd5b80600560008573ffffffffffffffffffffffffffffffffffffffff1673ffffffffffffffffffffffffffffffffffffffff16815260200190815260200160002060008473ffffffffffffffffffffffffffffffffffffffff1673ffffffffffffffffffffffffffffffffffffffff16815260200190815260200160002060006101000a81548160ff0219169083151502179055508173ffffffffffffffffffffffffffffffffffffffff168373ffffffffffffffffffffffffffffffffffffffff167f17307eab39ab6107e8899845ad3d59bd9653f200f220920489ca2b5937696c31836040516118b19190612228565b60405180910390a3505050565b60008373ffffffffffffffffffffffffffffffffffffffff163b1115611a6f578273ffffffffffffffffffffffffffffffffffffffff1663150b7a0261190261151b565b8685856040518563ffffffff1660e01b81526004016119249493929190612fdc565b6020604051808303816000875af192505050801561196057506040513d601f19601f8201168201806040525081019061195d919061303d565b60015b6119e4573d8060008114611990576040519150601f19603f3d011682016040523d82523d6000602084013e611995565b606091505b5060008151036119dc57836040517f64a0ae920000000000000000000000000000000000000000000000000000000081526004016119d39190612399565b60405180910390fd5b805181602001fd5b63150b7a0260e01b7bffffffffffffffffffffffffffffffffffffffffffffffffffffffff1916817bffffffffffffffffffffffffffffffffffffffffffffffffffffffff191614611a6d57836040517f64a0ae92000000000000000000000000000000000000000000000000000000008152600401611a649190612399565b60405180910390fd5b505b50505050565b606060405180602001604052806000815250905090565b606060006001611a9b84611f19565b01905060008167ffffffffffffffff811115611aba57611ab9612540565b5b6040519080825280601f01601f191660200182016040528015611aec5781602001600182028036833780820191505090505b509050600082602001820190505b600115611b4f578080600190039150507f3031323334353637383961626364656600000000000000000000000000000000600a86061a8153600a8581611b4357611b4261306a565b5b04945060008503611afa575b819350505050919050565b600073ffffffffffffffffffffffffffffffffffffffff168273ffffffffffffffffffffffffffffffffffffffff1603611bcc5760006040517f64a0ae92000000000000000000000000000000000000000000000000000000008152600401611bc39190612399565b60405180910390fd5b6000611bda83836000611535565b9050600073ffffffffffffffffffffffffffffffffffffffff168173ffffffffffffffffffffffffffffffffffffffff1614611c4e5760006040517f73c6ac6e000000000000000000000000000000000000000000000000000000008152600401611c459190612399565b60405180910390fd5b505050565b60006002600083815260200190815260200160002060009054906101000a900473ffffffffffffffffffffffffffffffffffffffff169050919050565b8080611cc95750600073ffffffffffffffffffffffffffffffffffffffff168273ffffffffffffffffffffffffffffffffffffffff1614155b15611dfd576000611cd984611456565b9050600073ffffffffffffffffffffffffffffffffffffffff168373ffffffffffffffffffffffffffffffffffffffff1614158015611d4457508273ffffffffffffffffffffffffffffffffffffffff168173ffffffffffffffffffffffffffffffffffffffff1614155b8015611d575750611d558184611023565b155b15611d9957826040517fa9fbf51f000000000000000000000000000000000000000000000000000000008152600401611d909190612399565b60405180910390fd5b8115611dfb57838573ffffffffffffffffffffffffffffffffffffffff168273ffffffffffffffffffffffffffffffffffffffff167f8c5be1e5ebec7d5bd14f71427d1e84f3dd0314c0f7b2291e5b200ac8c7c3b92560405160405180910390a45b505b836004600085815260200190815260200160002060006101000a81548173ffffffffffffffffffffffffffffffffffffffff021916908373ffffffffffffffffffffffffffffffffffffffff16021790555050505050565b611e6083838361206c565b611f1457600073ffffffffffffffffffffffffffffffffffffffff168373ffffffffffffffffffffffffffffffffffffffff1603611ed557806040517f7e273289000000000000000000000000000000000000000000000000000000008152600401611ecc9190612482565b60405180910390fd5b81816040517f177e802f000000000000000000000000000000000000000000000000000000008152600401611f0b929190612c80565b60405180910390fd5b505050565b600080600090507a184f03e93ff9f4daa797ed6e38ed64bf6a1f0100000000000000008310611f77577a184f03e93ff9f4daa797ed6e38ed64bf6a1f0100000000000000008381611f6d57611f6c61306a565b5b0492506040810190505b6d04ee2d6d415b85acef81000000008310611fb4576d04ee2d6d415b85acef81000000008381611faa57611fa961306a565b5b0492506020810190505b662386f26fc100008310611fe357662386f26fc100008381611fd957611fd861306a565b5b0492506010810190505b6305f5e100831061200c576305f5e10083816120025761200161306a565b5b0492506008810190505b61271083106120315761271083816120275761202661306a565b5b0492506004810190505b60648310612054576064838161204a5761204961306a565b5b0492506002810190505b600a8310612063576001810190505b80915050919050565b60008073ffffffffffffffffffffffffffffffffffffffff168373ffffffffffffffffffffffffffffffffffffffff161415801561212457508273ffffffffffffffffffffffffffffffffffffffff168473ffffffffffffffffffffffffffffffffffffffff1614806120e557506120e48484611023565b5b8061212357508273ffffffffffffffffffffffffffffffffffffffff1661210b836114de565b73ffffffffffffffffffffffffffffffffffffffff16145b5b90509392505050565b604051806101000160405280600081526020016060815260200160608152602001606081526020016000815260200160008152602001600081526020016000151581525090565b6000604051905090565b600080fd5b600080fd5b60007fffffffff0000000000000000000000000000000000000000000000000000000082169050919050565b6121bd81612188565b81146121c857600080fd5b50565b6000813590506121da816121b4565b92915050565b6000602082840312156121f6576121f561217e565b5b6000612204848285016121cb565b91505092915050565b60008115159050919050565b6122228161220d565b82525050565b600060208201905061223d6000830184612219565b92915050565b600081519050919050565b600082825260208201905092915050565b60005b8381101561227d578082015181840152602081019050612262565b60008484015250505050565b6000601f19601f8301169050919050565b60006122a582612243565b6122af818561224e565b93506122bf81856020860161225f565b6122c881612289565b840191505092915050565b600060208201905081810360008301526122ed818461229a565b905092915050565b6000819050919050565b612308816122f5565b811461231357600080fd5b50565b600081359050612325816122ff565b92915050565b6000602082840312156123415761234061217e565b5b600061234f84828501612316565b91505092915050565b600073ffffffffffffffffffffffffffffffffffffffff82169050919050565b600061238382612358565b9050919050565b61239381612378565b82525050565b60006020820190506123ae600083018461238a565b92915050565b6123bd81612378565b81146123c857600080fd5b50565b6000813590506123da816123b4565b92915050565b600080604083850312156123f7576123f661217e565b5b6000612405858286016123cb565b925050602061241685828601612316565b9150509250929050565b6000806000606084860312156124395761243861217e565b5b6000612447868287016123cb565b9350506020612458868287016123cb565b925050604061246986828701612316565b9150509250925092565b61247c816122f5565b82525050565b60006020820190506124976000830184612473565b92915050565b6000602082840312156124b3576124b261217e565b5b60006124c1848285016123cb565b91505092915050565b6124d38161220d565b81146124de57600080fd5b50565b6000813590506124f0816124ca565b92915050565b6000806040838503121561250d5761250c61217e565b5b600061251b858286016123cb565b925050602061252c858286016124e1565b9150509250929050565b600080fd5b600080fd5b7f4e487b7100000000000000000000000000000000000000000000000000000000600052604160045260246000fd5b61257882612289565b810181811067ffffffffffffffff8211171561259757612596612540565b5b80604052505050565b60006125aa612174565b90506125b6828261256f565b919050565b600067ffffffffffffffff8211156125d6576125d5612540565b5b6125df82612289565b9050602081019050919050565b82818337600083830152505050565b600061260e612609846125bb565b6125a0565b90508281526020810184848401111561262a5761262961253b565b5b6126358482856125ec565b509392505050565b600082601f83011261265257612651612536565b5b81356126628482602086016125fb565b91505092915050565b600080600080608085870312156126855761268461217e565b5b6000612693878288016123cb565b94505060206126a4878288016123cb565b93505060406126b587828801612316565b925050606085013567ffffffffffffffff8111156126d6576126d5612183565b5b6126e28782880161263d565b91505092959194509250565b600080604083850312156127055761270461217e565b5b6000612713858286016123cb565b9250506020612724858286016123cb565b9150509250929050565b600067ffffffffffffffff82111561274957612748612540565b5b61275282612289565b9050602081019050919050565b600061277261276d8461272e565b6125a0565b90508281526020810184848401111561278e5761278d61253b565b5b6127998482856125ec565b509392505050565b600082601f8301126127b6576127b5612536565b5b81356127c684826020860161275f565b91505092915050565b600080600080600080600060e0888a0312156127ee576127ed61217e565b5b60006127fc8a828b01612316565b975050602088013567ffffffffffffffff81111561281d5761281c612183565b5b6128298a828b016127a1565b965050604088013567ffffffffffffffff81111561284a57612849612183565b5b6128568a828b016127a1565b955050606088013567ffffffffffffffff81111561287757612876612183565b5b6128838a828b016127a1565b94505060806128948a828b01612316565b93505060a06128a58a828b01612316565b92505060c06128b68a828b01612316565b91505092959891949750929550565b6128ce816122f5565b82525050565b600082825260208201905092915050565b60006128f082612243565b6128fa81856128d4565b935061290a81856020860161225f565b61291381612289565b840191505092915050565b6129278161220d565b82525050565b60006101008301600083015161294660008601826128c5565b506020830151848203602086015261295e82826128e5565b9150506040830151848203604086015261297882826128e5565b9150506060830151848203606086015261299282826128e5565b91505060808301516129a760808601826128c5565b5060a08301516129ba60a08601826128c5565b5060c08301516129cd60c08601826128c5565b5060e08301516129e060e086018261291e565b508091505092915050565b60006020820190508181036000830152612a05818461292d565b905092915050565b7f4e487b7100000000000000000000000000000000000000000000000000000000600052602260045260246000fd5b60006002820490506001821680612a5457607f821691505b602082108103612a6757612a66612a0d565b5b50919050565b6000606082019050612a82600083018661238a565b612a8f6020830185612473565b612a9c604083018461238a565b949350505050565b7f4e487b7100000000000000000000000000000000000000000000000000000000600052603260045260246000fd5b7f417320746865206f776e6572206f6620746869732061737365742c20796f752060008201527f63616e6e6f7420706c6163652061206269642100000000000000000000000000602082015250565b6000612b2f60338361224e565b9150612b3a82612ad3565b604082019050919050565b60006020820190508181036000830152612b5e81612b22565b9050919050565b7f4e487b7100000000000000000000000000000000000000000000000000000000600052601160045260246000fd5b6000612b9f826122f5565b9150612baa836122f5565b9250828201905080821115612bc257612bc1612b65565b5b92915050565b7f426964204661696c6564212042696464696e6720616d6f756e74206d7573742060008201527f626520686967686572207468616e206578697374696e6720686967686573742060208201527f6269640000000000000000000000000000000000000000000000000000000000604082015250565b6000612c4a60438361224e565b9150612c5582612bc8565b606082019050919050565b60006020820190508181036000830152612c7981612c3d565b9050919050565b6000604082019050612c95600083018561238a565b612ca26020830184612473565b9392505050565b600081905092915050565b6000612cbf82612243565b612cc98185612ca9565b9350612cd981856020860161225f565b80840191505092915050565b6000612cf18285612cb4565b9150612cfd8284612cb4565b91508190509392505050565b60008190508160005260206000209050919050565b60006020601f8301049050919050565b600082821b905092915050565b600060088302612d6b7fffffffffffffffffffffffffffffffffffffffffffffffffffffffffffffffff82612d2e565b612d758683612d2e565b95508019841693508086168417925050509392505050565b6000819050919050565b6000612db2612dad612da8846122f5565b612d8d565b6122f5565b9050919050565b6000819050919050565b612dcc83612d97565b612de0612dd882612db9565b848454612d3b565b825550505050565b600090565b612df5612de8565b612e00818484612dc3565b505050565b5b81811015612e2457612e19600082612ded565b600181019050612e06565b5050565b601f821115612e6957612e3a81612d09565b612e4384612d1e565b81016020851015612e52578190505b612e66612e5e85612d1e565b830182612e05565b50505b505050565b600082821c905092915050565b6000612e8c60001984600802612e6e565b1980831691505092915050565b6000612ea58383612e7b565b9150826002028217905092915050565b612ebe82612243565b67ffffffffffffffff811115612ed757612ed6612540565b5b612ee18254612a3c565b612eec828285612e28565b600060209050601f831160018114612f1f5760008415612f0d578287015190505b612f178582612e99565b865550612f7f565b601f198416612f2d86612d09565b60005b82811015612f5557848901518255600182019150602085019450602081019050612f30565b86831015612f725784890151612f6e601f891682612e7b565b8355505b6001600288020188555050505b505050505050565b600081519050919050565b600082825260208201905092915050565b6000612fae82612f87565b612fb88185612f92565b9350612fc881856020860161225f565b612fd181612289565b840191505092915050565b6000608082019050612ff1600083018761238a565b612ffe602083018661238a565b61300b6040830185612473565b818103606083015261301d8184612fa3565b905095945050505050565b600081519050613037816121b4565b92915050565b6000602082840312156130535761305261217e565b5b600061306184828501613028565b91505092915050565b7f4e487b7100000000000000000000000000000000000000000000000000000000600052601260045260246000fdfea2646970667358221220ffeb9b1fcde0e59a18b953e9caab73c12f7ab9e774c6f42c5258e8d0a483c7c864736f6c63430008180033",
  "linkReferences": {},
  "deployedLinkReferences": {}
}